{
  "contractName": "Crowdsale",
  "abi": [
    {
      "inputs": [],
      "payable": false,
      "stateMutability": "nonpayable",
      "type": "constructor"
    },
    {
      "payable": true,
      "stateMutability": "payable",
      "type": "fallback"
    },
    {
      "anonymous": false,
      "inputs": [
        {
          "indexed": true,
          "name": "_address",
          "type": "address"
        },
        {
          "indexed": false,
          "name": "_value",
          "type": "uint256"
        }
      ],
      "name": "TokenPurchase",
      "type": "event"
    },
    {
      "anonymous": false,
      "inputs": [
        {
          "indexed": true,
          "name": "_address",
          "type": "address"
        },
        {
          "indexed": false,
          "name": "_value",
          "type": "uint256"
        }
      ],
      "name": "TokenRefund",
      "type": "event"
    },
    {
      "constant": false,
      "inputs": [
        {
          "name": "_value",
          "type": "uint256"
        }
      ],
      "name": "mint",
      "outputs": [],
      "payable": false,
      "stateMutability": "nonpayable",
      "type": "function"
    },
    {
      "constant": false,
      "inputs": [
        {
          "name": "_value",
          "type": "uint256"
        }
      ],
      "name": "burn",
      "outputs": [],
      "payable": false,
      "stateMutability": "nonpayable",
      "type": "function"
    },
    {
      "constant": false,
      "inputs": [],
      "name": "buyTokens",
      "outputs": [],
      "payable": true,
      "stateMutability": "payable",
      "type": "function"
    },
    {
      "constant": false,
      "inputs": [],
      "name": "refundTokens",
      "outputs": [],
      "payable": true,
      "stateMutability": "payable",
      "type": "function"
    },
    {
      "constant": false,
      "inputs": [],
      "name": "forwardFunds",
      "outputs": [
        {
          "name": "",
          "type": "bool"
        }
      ],
      "payable": false,
      "stateMutability": "nonpayable",
      "type": "function"
    }
  ],
  "bytecode": "0x6060604052341561000f57600080fd5b33600360006101000a81548173ffffffffffffffffffffffffffffffffffffffff021916908373ffffffffffffffffffffffffffffffffffffffff1602179055504260018190555061007a620d2f004261015364010000000002610c50179091906401000000009004565b600281905550620f4240600481905550600160058190555061009a610171565b604051809103906000f08015156100b057600080fd5b600660006101000a81548173ffffffffffffffffffffffffffffffffffffffff021916908373ffffffffffffffffffffffffffffffffffffffff1602179055506100f8610181565b604051809103906000f080151561010e57600080fd5b600760006101000a81548173ffffffffffffffffffffffffffffffffffffffff021916908373ffffffffffffffffffffffffffffffffffffffff160217905550610191565b600080828401905083811015151561016757fe5b8091505092915050565b604051610cc380610e3a83390190565b60405161078b80611afd83390190565b610c9a806101a06000396000f30060606040526004361061006d576000357c0100000000000000000000000000000000000000000000000000000000900463ffffffff16806342966c681461007257806371007509146100955780639d7352861461009f578063a0712d68146100cc578063d0febe4c146100ef575b600080fd5b341561007d57600080fd5b61009360048080359060200190919050506100f9565b005b61009d61031d565b005b34156100aa57600080fd5b6100b2610635565b604051808215151515815260200191505060405180910390f35b34156100d757600080fd5b6100ed6004808035906020019091905050610716565b005b6100f7610819565b005b600360009054906101000a900473ffffffffffffffffffffffffffffffffffffffff1673ffffffffffffffffffffffffffffffffffffffff163373ffffffffffffffffffffffffffffffffffffffff1614151561015557600080fd5b80600660009054906101000a900473ffffffffffffffffffffffffffffffffffffffff1673ffffffffffffffffffffffffffffffffffffffff166370a08231600360009054906101000a900473ffffffffffffffffffffffffffffffffffffffff166000604051602001526040518263ffffffff167c0100000000000000000000000000000000000000000000000000000000028152600401808273ffffffffffffffffffffffffffffffffffffffff1673ffffffffffffffffffffffffffffffffffffffff168152602001915050602060405180830381600087803b151561023d57600080fd5b6102c65a03f1151561024e57600080fd5b505050604051805190501015151561026557600080fd5b600660009054906101000a900473ffffffffffffffffffffffffffffffffffffffff1673ffffffffffffffffffffffffffffffffffffffff16636d1b229d826000604051602001526040518263ffffffff167c010000000000000000000000000000000000000000000000000000000002815260040180828152602001915050602060405180830381600087803b15156102fe57600080fd5b6102c65a03f1151561030f57600080fd5b505050604051805190505050565b60004260025411151561032f57600080fd5b610423600554600660009054906101000a900473ffffffffffffffffffffffffffffffffffffffff1673ffffffffffffffffffffffffffffffffffffffff166370a08231336000604051602001526040518263ffffffff167c0100000000000000000000000000000000000000000000000000000000028152600401808273ffffffffffffffffffffffffffffffffffffffff1673ffffffffffffffffffffffffffffffffffffffff168152602001915050602060405180830381600087803b15156103fa57600080fd5b6102c65a03f1151561040b57600080fd5b50505060405180519050610be990919063ffffffff16565b9050600660009054906101000a900473ffffffffffffffffffffffffffffffffffffffff1673ffffffffffffffffffffffffffffffffffffffff1663ff05694933600660009054906101000a900473ffffffffffffffffffffffffffffffffffffffff1673ffffffffffffffffffffffffffffffffffffffff166370a08231336000604051602001526040518263ffffffff167c0100000000000000000000000000000000000000000000000000000000028152600401808273ffffffffffffffffffffffffffffffffffffffff1673ffffffffffffffffffffffffffffffffffffffff168152602001915050602060405180830381600087803b151561052957600080fd5b6102c65a03f1151561053a57600080fd5b505050604051805190506040518363ffffffff167c0100000000000000000000000000000000000000000000000000000000028152600401808373ffffffffffffffffffffffffffffffffffffffff1673ffffffffffffffffffffffffffffffffffffffff16815260200182815260200192505050600060405180830381600087803b15156105c857600080fd5b6102c65a03f115156105d957600080fd5b5050503373ffffffffffffffffffffffffffffffffffffffff166108fc829081150290604051600060405180830381858888f19350505050151561061c57600080fd5b61063181600054610c0490919063ffffffff16565b5050565b6000600360009054906101000a900473ffffffffffffffffffffffffffffffffffffffff1673ffffffffffffffffffffffffffffffffffffffff163373ffffffffffffffffffffffffffffffffffffffff1614151561069357600080fd5b600254421115156106a357600080fd5b600360009054906101000a900473ffffffffffffffffffffffffffffffffffffffff1673ffffffffffffffffffffffffffffffffffffffff166108fc3073ffffffffffffffffffffffffffffffffffffffff16319081150290604051600060405180830381858888f19350505050905090565b600360009054906101000a900473ffffffffffffffffffffffffffffffffffffffff1673ffffffffffffffffffffffffffffffffffffffff163373ffffffffffffffffffffffffffffffffffffffff1614151561077257600080fd5b600660009054906101000a900473ffffffffffffffffffffffffffffffffffffffff1673ffffffffffffffffffffffffffffffffffffffff166397304ced826040518263ffffffff167c010000000000000000000000000000000000000000000000000000000002815260040180828152602001915050600060405180830381600087803b151561080257600080fd5b6102c65a03f1151561081357600080fd5b50505050565b4260025411151561082957600080fd5b600760009054906101000a900473ffffffffffffffffffffffffffffffffffffffff1673ffffffffffffffffffffffffffffffffffffffff16631e2231436000604051602001526040518163ffffffff167c0100000000000000000000000000000000000000000000000000000000028152600401602060405180830381600087803b15156108b757600080fd5b6102c65a03f115156108c857600080fd5b5050506040518051905073ffffffffffffffffffffffffffffffffffffffff163373ffffffffffffffffffffffffffffffffffffffff1614151561090b57600080fd5b6001600760009054906101000a900473ffffffffffffffffffffffffffffffffffffffff1673ffffffffffffffffffffffffffffffffffffffff16633e3c9eae6000604051602001526040518163ffffffff167c0100000000000000000000000000000000000000000000000000000000028152600401602060405180830381600087803b151561099b57600080fd5b6102c65a03f115156109ac57600080fd5b5050506040518051905060ff161115156109c557600080fd5b600660009054906101000a900473ffffffffffffffffffffffffffffffffffffffff1673ffffffffffffffffffffffffffffffffffffffff1663a9059cbb33610a1960055434610c1d90919063ffffffff16565b6000604051602001526040518363ffffffff167c0100000000000000000000000000000000000000000000000000000000028152600401808373ffffffffffffffffffffffffffffffffffffffff1673ffffffffffffffffffffffffffffffffffffffff16815260200182815260200192505050602060405180830381600087803b1515610aa657600080fd5b6102c65a03f11515610ab757600080fd5b5050506040518051905050610aeb610ada60055434610c1d90919063ffffffff16565b600054610c5090919063ffffffff16565b50600760009054906101000a900473ffffffffffffffffffffffffffffffffffffffff1673ffffffffffffffffffffffffffffffffffffffff1663957908d16040518163ffffffff167c0100000000000000000000000000000000000000000000000000000000028152600401600060405180830381600087803b1515610b7157600080fd5b6102c65a03f11515610b8257600080fd5b5050503373ffffffffffffffffffffffffffffffffffffffff167ff4b351c7293f3c20fc9912c61adbe9823a6de3162bde18c98eb6feeae232f861610bd260055434610c1d90919063ffffffff16565b6040518082815260200191505060405180910390a2565b6000808284811515610bf757fe5b0490508091505092915050565b6000828211151515610c1257fe5b818303905092915050565b60008082840290506000841480610c3e5750828482811515610c3b57fe5b04145b1515610c4657fe5b8091505092915050565b6000808284019050838110151515610c6457fe5b80915050929150505600a165627a7a7230582054197185511b0a35598007818d7fc2052d2b8196a3a1a4106ec726f6bd437dac00296060604052341561000f57600080fd5b620f4240600181905550620f4240600360003373ffffffffffffffffffffffffffffffffffffffff1673ffffffffffffffffffffffffffffffffffffffff16815260200190815260200160002081905550610c548061006f6000396000f3006060604052600436106100ba576000357c0100000000000000000000000000000000000000000000000000000000900463ffffffff16806306fdde03146100bf578063095ea7b31461014d57806318160ddd146101a757806323b872dd146101d05780636d1b229d1461024957806370a082311461028457806395d89b41146102d157806397304ced1461035f578063a9059cbb14610382578063dd54291b146103dc578063dd62ed3e14610405578063ff05694914610471575b600080fd5b34156100ca57600080fd5b6100d26104b3565b6040518080602001828103825283818151815260200191508051906020019080838360005b838110156101125780820151818401526020810190506100f7565b50505050905090810190601f16801561013f5780820380516001836020036101000a031916815260200191505b509250505060405180910390f35b341561015857600080fd5b61018d600480803573ffffffffffffffffffffffffffffffffffffffff169060200190919080359060200190919050506104ec565b604051808215151515815260200191505060405180910390f35b34156101b257600080fd5b6101ba61066c565b6040518082815260200191505060405180910390f35b34156101db57600080fd5b61022f600480803573ffffffffffffffffffffffffffffffffffffffff1690602001909190803573ffffffffffffffffffffffffffffffffffffffff16906020019091908035906020019091905050610672565b604051808215151515815260200191505060405180910390f35b341561025457600080fd5b61026a6004808035906020019091905050610872565b604051808215151515815260200191505060405180910390f35b341561028f57600080fd5b6102bb600480803573ffffffffffffffffffffffffffffffffffffffff169060200190919050506108fb565b6040518082815260200191505060405180910390f35b34156102dc57600080fd5b6102e4610944565b6040518080602001828103825283818151815260200191508051906020019080838360005b83811015610324578082015181840152602081019050610309565b50505050905090810190601f1680156103515780820380516001836020036101000a031916815260200191505b509250505060405180910390f35b341561036a57600080fd5b610380600480803590602001909190505061097d565b005b341561038d57600080fd5b6103c2600480803573ffffffffffffffffffffffffffffffffffffffff16906020019091908035906020019091905050610996565b604051808215151515815260200191505060405180910390f35b34156103e757600080fd5b6103ef610b0d565b6040518082815260200191505060405180910390f35b341561041057600080fd5b61045b600480803573ffffffffffffffffffffffffffffffffffffffff1690602001909190803573ffffffffffffffffffffffffffffffffffffffff16906020019091905050610b13565b6040518082815260200191505060405180910390f35b341561047c57600080fd5b6104b1600480803573ffffffffffffffffffffffffffffffffffffffff16906020019091908035906020019091905050610b9a565b005b6040805190810160405280600d81526020017f4d69647465726d20546f6b656e0000000000000000000000000000000000000081525081565b600081600460003373ffffffffffffffffffffffffffffffffffffffff1673ffffffffffffffffffffffffffffffffffffffff16815260200190815260200160002060008573ffffffffffffffffffffffffffffffffffffffff1673ffffffffffffffffffffffffffffffffffffffff168152602001908152602001600020819055508273ffffffffffffffffffffffffffffffffffffffff163373ffffffffffffffffffffffffffffffffffffffff167f8c5be1e5ebec7d5bd14f71427d1e84f3dd0314c0f7b2291e5b200ac8c7c3b925846040518082815260200191505060405180910390a381600460003373ffffffffffffffffffffffffffffffffffffffff1673ffffffffffffffffffffffffffffffffffffffff16815260200190815260200160002060008573ffffffffffffffffffffffffffffffffffffffff1673ffffffffffffffffffffffffffffffffffffffff1681526020019081526020016000205414156106615760019050610666565b600090505b92915050565b60015481565b6000808211151561068257600080fd5b81600360008673ffffffffffffffffffffffffffffffffffffffff1673ffffffffffffffffffffffffffffffffffffffff168152602001908152602001600020541015801561074d575081600460008673ffffffffffffffffffffffffffffffffffffffff1673ffffffffffffffffffffffffffffffffffffffff16815260200190815260200160002060003373ffffffffffffffffffffffffffffffffffffffff1673ffffffffffffffffffffffffffffffffffffffff1681526020019081526020016000205410155b15610866576107a482600360008773ffffffffffffffffffffffffffffffffffffffff1673ffffffffffffffffffffffffffffffffffffffff16815260200190815260200160002054610bf190919063ffffffff16565b506107f782600360008673ffffffffffffffffffffffffffffffffffffffff1673ffffffffffffffffffffffffffffffffffffffff16815260200190815260200160002054610c0a90919063ffffffff16565b508273ffffffffffffffffffffffffffffffffffffffff163373ffffffffffffffffffffffffffffffffffffffff167fddf252ad1be2c89b69c2b068fc378daa952ba7f163c4a11628f55a4df523b3ef846040518082815260200191505060405180910390a36001905061086b565b600090505b9392505050565b600081600360003373ffffffffffffffffffffffffffffffffffffffff1673ffffffffffffffffffffffffffffffffffffffff16815260200190815260200160002054101515156108c257600080fd5b6108cd600083610996565b156108f1576108e782600154610bf190919063ffffffff16565b50600190506108f6565b600090505b919050565b6000600360008373ffffffffffffffffffffffffffffffffffffffff1673ffffffffffffffffffffffffffffffffffffffff168152602001908152602001600020549050919050565b6040805190810160405280600481526020017f4d4944540000000000000000000000000000000000000000000000000000000081525081565b61099281600154610c0a90919063ffffffff16565b5050565b600080821115156109a657600080fd5b81600360003373ffffffffffffffffffffffffffffffffffffffff1673ffffffffffffffffffffffffffffffffffffffff16815260200190815260200160002054101515610b0257610a4082600360003373ffffffffffffffffffffffffffffffffffffffff1673ffffffffffffffffffffffffffffffffffffffff16815260200190815260200160002054610bf190919063ffffffff16565b50610a9382600360008673ffffffffffffffffffffffffffffffffffffffff1673ffffffffffffffffffffffffffffffffffffffff16815260200190815260200160002054610c0a90919063ffffffff16565b508273ffffffffffffffffffffffffffffffffffffffff163373ffffffffffffffffffffffffffffffffffffffff167fddf252ad1be2c89b69c2b068fc378daa952ba7f163c4a11628f55a4df523b3ef846040518082815260200191505060405180910390a360019050610b07565b600090505b92915050565b60025481565b6000600460008473ffffffffffffffffffffffffffffffffffffffff1673ffffffffffffffffffffffffffffffffffffffff16815260200190815260200160002060008373ffffffffffffffffffffffffffffffffffffffff1673ffffffffffffffffffffffffffffffffffffffff16815260200190815260200160002054905092915050565b610bec81600360008573ffffffffffffffffffffffffffffffffffffffff1673ffffffffffffffffffffffffffffffffffffffff16815260200190815260200160002054610bf190919063ffffffff16565b505050565b6000828211151515610bff57fe5b818303905092915050565b6000808284019050838110151515610c1e57fe5b80915050929150505600a165627a7a72305820887334128fd21dde4881d5b7ea0233915e6db91e255b42c6bc75cb3356f005e20029606060405260056000806101000a81548160ff021916908360ff160217905550341561002a57600080fd5b60008060016101000a81548160ff021916908360ff16021790555061012c60018190555061072e8061005d6000396000f300606060405260043610610083576000357c0100000000000000000000000000000000000000000000000000000000900463ffffffff1680631e223143146100885780633e3c9eae146100dd5780638f807f6b1461010c578063957908d114610145578063ad7d59fc1461015a578063e0c6190d14610189578063f2a75fe41461019e575b600080fd5b341561009357600080fd5b61009b6101cb565b604051808273ffffffffffffffffffffffffffffffffffffffff1673ffffffffffffffffffffffffffffffffffffffff16815260200191505060405180910390f35b34156100e857600080fd5b6100f0610204565b604051808260ff1660ff16815260200191505060405180910390f35b341561011757600080fd5b610143600480803573ffffffffffffffffffffffffffffffffffffffff1690602001909190505061021a565b005b341561015057600080fd5b6101586103a8565b005b341561016557600080fd5b61016d610609565b604051808260ff1660ff16815260200191505060405180910390f35b341561019457600080fd5b61019c61065d565b005b34156101a957600080fd5b6101b16106e6565b604051808215151515815260200191505060405180910390f35b6000600360006005811015156101dd57fe5b0160009054906101000a900473ffffffffffffffffffffffffffffffffffffffff16905090565b60008060019054906101000a900460ff16905090565b6000809054906101000a900460ff1660ff16600060019054906101000a900460ff1660ff1610151561024b57600080fd5b806003600060019054906101000a900460ff1660ff1660058110151561026d57fe5b0160006101000a81548173ffffffffffffffffffffffffffffffffffffffff021916908373ffffffffffffffffffffffffffffffffffffffff160217905550600060019054906101000a900460ff16600860008373ffffffffffffffffffffffffffffffffffffffff1673ffffffffffffffffffffffffffffffffffffffff16815260200190815260200160002060006101000a81548160ff021916908360ff1602179055506000600181819054906101000a900460ff168092919060010191906101000a81548160ff021916908360ff160217905550506000600860008373ffffffffffffffffffffffffffffffffffffffff1673ffffffffffffffffffffffffffffffffffffffff16815260200190815260200160002060009054906101000a900460ff1660ff1614156103a557426002819055505b50565b600080600060019054906101000a900460ff1660ff161115156103ca57600080fd5b60086000600360006005811015156103de57fe5b0160009054906101000a900473ffffffffffffffffffffffffffffffffffffffff1673ffffffffffffffffffffffffffffffffffffffff1673ffffffffffffffffffffffffffffffffffffffff16815260200190815260200160002060006101000a81549060ff02191690556003600060058110151561045a57fe5b0160006101000a81549073ffffffffffffffffffffffffffffffffffffffff02191690556000600181819054906101000a900460ff16809291906001900391906101000a81548160ff021916908360ff16021790555050600090505b600060019054906101000a900460ff1660ff168110156105ff576003600182016005811015156104e257fe5b0160009054906101000a900473ffffffffffffffffffffffffffffffffffffffff1660038260058110151561051357fe5b0160006101000a81548173ffffffffffffffffffffffffffffffffffffffff021916908373ffffffffffffffffffffffffffffffffffffffff1602179055506008600060038360058110151561056557fe5b0160009054906101000a900473ffffffffffffffffffffffffffffffffffffffff1673ffffffffffffffffffffffffffffffffffffffff1673ffffffffffffffffffffffffffffffffffffffff168152602001908152602001600020600081819054906101000a900460ff16809291906001900391906101000a81548160ff021916908360ff1602179055505080806001019150506104b6565b4260028190555050565b6000600860003373ffffffffffffffffffffffffffffffffffffffff1673ffffffffffffffffffffffffffffffffffffffff16815260200190815260200160002060009054906101000a900460ff16905090565b60006106676101cb565b9050426001546002540110156106805761067f6103a8565b5b7fdea867390f6450198bafc0302dc1818854c77b7edf1763481fcf3077af24609f81604051808273ffffffffffffffffffffffffffffffffffffffff1673ffffffffffffffffffffffffffffffffffffffff16815260200191505060405180910390a150565b600080600060019054906101000a900460ff1660ff16149050905600a165627a7a723058204a07a83d7f2bb4f22e981d3dc1fa23d56370a78aa9d371d4973731c23ff2c5050029",
  "source": "pragma solidity ^0.4.15;\n\nimport './Queue.sol';\nimport './Token.sol';\nimport './utils/SafeMath.sol';\n\n/**\n * @title Crowdsale\n * @dev Contract that deploys `Token.sol`\n * Is timelocked, manages buyer queue, updates balances on `Token.sol`\n */\n\ncontract Crowdsale {\n    using SafeMath for uint256;\n\n    uint256 tokensSold;\n    uint256 startTime;\n    uint256 endTime;\n    address owner;\n    uint256 initialAmount;\n    uint256 weiWorth;\n\n    Token token;\n    Queue queue;\n\n    event TokenPurchase(address indexed _address, uint256 _value);\n    event TokenRefund(address indexed _address, uint256 _value);\n\n    function Crowdsale () {\n        owner = msg.sender;\n        startTime = now;\n        endTime = now.add(10 days); // ?\n        initialAmount = 1000000;\n        weiWorth = 1;\n        token = new Token();\n        queue = new Queue();\n    }\n\n    modifier ownerOnly() {\n        require(msg.sender == owner);\n        _;\n    }\n\n    modifier saleActive() {\n        require(endTime > now);\n        _;\n    }\n\n    modifier canBuy() {\n        require(msg.sender == queue.getFirst());\n        require(queue.qsize() > 1);\n        _;\n    }\n\n    function mint(uint256 _value) ownerOnly {\n        token.mintTokens(_value);\n    }\n\n    function burn(uint256 _value) ownerOnly {\n        require(token.balanceOf(owner) >= _value);\n\n        token.burnTokens(_value);\n    }\n\n    function buyTokens() payable saleActive canBuy {\n        token.transfer(msg.sender, msg.value.mul(weiWorth));\n        tokensSold.add(msg.value.mul(weiWorth));\n        queue.dequeue();\n        TokenPurchase(msg.sender, msg.value.mul(weiWorth));\n    }\n\n    function refundTokens() payable saleActive {\n        uint256 toRefund = token.balanceOf(msg.sender).div(weiWorth);\n        token.decreaseBalance(msg.sender, token.balanceOf(msg.sender));\n        msg.sender.transfer(toRefund);\n        tokensSold.sub(toRefund);\n    }\n\n    function forwardFunds() ownerOnly returns(bool) {\n        require(now > endTime);\n\n        return owner.send(this.balance);\n    }\n\n    function () payable {\n        revert();\n    }\n}\n",
  "sourcePath": "/Users/vitali/IdeaProjects/blockchain-dev/sp18-midterm-p1/contracts/Crowdsale.sol",
  "compiler": {
    "name": "solc",
    "version": "0.4.19+commit.c4cbbb05.Emscripten.clang"
  },
  "schemaVersion": "1.0.1",
  "updatedAt": "2018-03-11T02:38:45.676Z"
}