{
  "contractName": "Queue",
  "abi": [
    {
      "inputs": [],
      "payable": false,
      "stateMutability": "nonpayable",
      "type": "constructor"
    },
    {
      "anonymous": false,
      "inputs": [
        {
          "indexed": false,
          "name": "ejectedAddress",
          "type": "address"
        }
      ],
      "name": "EjectFront",
      "type": "event"
    },
    {
      "constant": true,
      "inputs": [],
      "name": "qsize",
      "outputs": [
        {
          "name": "",
          "type": "uint8"
        }
      ],
      "payable": false,
      "stateMutability": "view",
      "type": "function"
    },
    {
      "constant": true,
      "inputs": [],
      "name": "empty",
      "outputs": [
        {
          "name": "",
          "type": "bool"
        }
      ],
      "payable": false,
      "stateMutability": "view",
      "type": "function"
    },
    {
      "constant": true,
      "inputs": [],
      "name": "getFirst",
      "outputs": [
        {
          "name": "",
          "type": "address"
        }
      ],
      "payable": false,
      "stateMutability": "view",
      "type": "function"
    },
    {
      "constant": true,
      "inputs": [],
      "name": "checkPlace",
      "outputs": [
        {
          "name": "",
          "type": "uint8"
        }
      ],
      "payable": false,
      "stateMutability": "view",
      "type": "function"
    },
    {
      "constant": false,
      "inputs": [],
      "name": "checkTime",
      "outputs": [],
      "payable": false,
      "stateMutability": "nonpayable",
      "type": "function"
    },
    {
      "constant": false,
      "inputs": [],
      "name": "dequeue",
      "outputs": [],
      "payable": false,
      "stateMutability": "nonpayable",
      "type": "function"
    },
    {
      "constant": false,
      "inputs": [
        {
          "name": "addr",
          "type": "address"
        }
      ],
      "name": "enqueue",
      "outputs": [],
      "payable": false,
      "stateMutability": "nonpayable",
      "type": "function"
    }
  ],
  "bytecode": "0x606060405260056000806101000a81548160ff021916908360ff160217905550341561002a57600080fd5b60008060016101000a81548160ff021916908360ff16021790555061012c60018190555061072e8061005d6000396000f300606060405260043610610083576000357c0100000000000000000000000000000000000000000000000000000000900463ffffffff1680631e223143146100885780633e3c9eae146100dd5780638f807f6b1461010c578063957908d114610145578063ad7d59fc1461015a578063e0c6190d14610189578063f2a75fe41461019e575b600080fd5b341561009357600080fd5b61009b6101cb565b604051808273ffffffffffffffffffffffffffffffffffffffff1673ffffffffffffffffffffffffffffffffffffffff16815260200191505060405180910390f35b34156100e857600080fd5b6100f0610204565b604051808260ff1660ff16815260200191505060405180910390f35b341561011757600080fd5b610143600480803573ffffffffffffffffffffffffffffffffffffffff1690602001909190505061021a565b005b341561015057600080fd5b6101586103a8565b005b341561016557600080fd5b61016d610609565b604051808260ff1660ff16815260200191505060405180910390f35b341561019457600080fd5b61019c61065d565b005b34156101a957600080fd5b6101b16106e6565b604051808215151515815260200191505060405180910390f35b6000600360006005811015156101dd57fe5b0160009054906101000a900473ffffffffffffffffffffffffffffffffffffffff16905090565b60008060019054906101000a900460ff16905090565b6000809054906101000a900460ff1660ff16600060019054906101000a900460ff1660ff1610151561024b57600080fd5b806003600060019054906101000a900460ff1660ff1660058110151561026d57fe5b0160006101000a81548173ffffffffffffffffffffffffffffffffffffffff021916908373ffffffffffffffffffffffffffffffffffffffff160217905550600060019054906101000a900460ff16600860008373ffffffffffffffffffffffffffffffffffffffff1673ffffffffffffffffffffffffffffffffffffffff16815260200190815260200160002060006101000a81548160ff021916908360ff1602179055506000600181819054906101000a900460ff168092919060010191906101000a81548160ff021916908360ff160217905550506000600860008373ffffffffffffffffffffffffffffffffffffffff1673ffffffffffffffffffffffffffffffffffffffff16815260200190815260200160002060009054906101000a900460ff1660ff1614156103a557426002819055505b50565b600080600060019054906101000a900460ff1660ff161115156103ca57600080fd5b60086000600360006005811015156103de57fe5b0160009054906101000a900473ffffffffffffffffffffffffffffffffffffffff1673ffffffffffffffffffffffffffffffffffffffff1673ffffffffffffffffffffffffffffffffffffffff16815260200190815260200160002060006101000a81549060ff02191690556003600060058110151561045a57fe5b0160006101000a81549073ffffffffffffffffffffffffffffffffffffffff02191690556000600181819054906101000a900460ff16809291906001900391906101000a81548160ff021916908360ff16021790555050600090505b600060019054906101000a900460ff1660ff168110156105ff576003600182016005811015156104e257fe5b0160009054906101000a900473ffffffffffffffffffffffffffffffffffffffff1660038260058110151561051357fe5b0160006101000a81548173ffffffffffffffffffffffffffffffffffffffff021916908373ffffffffffffffffffffffffffffffffffffffff1602179055506008600060038360058110151561056557fe5b0160009054906101000a900473ffffffffffffffffffffffffffffffffffffffff1673ffffffffffffffffffffffffffffffffffffffff1673ffffffffffffffffffffffffffffffffffffffff168152602001908152602001600020600081819054906101000a900460ff16809291906001900391906101000a81548160ff021916908360ff1602179055505080806001019150506104b6565b4260028190555050565b6000600860003373ffffffffffffffffffffffffffffffffffffffff1673ffffffffffffffffffffffffffffffffffffffff16815260200190815260200160002060009054906101000a900460ff16905090565b60006106676101cb565b9050426001546002540110156106805761067f6103a8565b5b7fdea867390f6450198bafc0302dc1818854c77b7edf1763481fcf3077af24609f81604051808273ffffffffffffffffffffffffffffffffffffffff1673ffffffffffffffffffffffffffffffffffffffff16815260200191505060405180910390a150565b600080600060019054906101000a900460ff1660ff16149050905600a165627a7a723058204a07a83d7f2bb4f22e981d3dc1fa23d56370a78aa9d371d4973731c23ff2c5050029",
  "source": "pragma solidity ^0.4.15;\n\n/**\n * @title Queue\n * @dev Data structure contract used in `Crowdsale.sol`\n * Allows buyers to line up on a first-in-first-out basis\n * See this example: http://interactivepython.org/courselib/static/pythonds/BasicDS/ImplementingaQueueinPython.html\n */\n\ncontract Queue {\n    /* State variables */\n    uint8 size = 5;\n    uint8 numOfPeople;\n    uint frontTimeLimit;\n    uint frontTimer;\n    address[5] queue;\n    mapping (address => uint8) addressPosition;\n\n    /* Add events */\n    event EjectFront(address ejectedAddress);\n\n    /* Add constructor */\n    function Queue () public {\n        numOfPeople = 0;\n        frontTimeLimit = 5 minutes;\n    }\n\n    /* Returns the number of people waiting in line */\n    function qsize() constant returns(uint8) {\n        return numOfPeople;\n    }\n\n    /* Returns whether the queue is empty or not */\n    function empty() constant returns(bool) {\n        return numOfPeople == 0;\n    }\n\n    /* Returns the address of the person in the front of the queue */\n    function getFirst() constant returns(address) {\n        return queue[0];\n    }\n\n    /* Allows `msg.sender` to check their position in the queue */\n    function checkPlace() constant returns(uint8) {\n        return addressPosition[msg.sender];\n    }\n\n    /* Allows anyone to expel the first person in line if their time\n     * limit is up */\n    function checkTime() {\n        address toEject = getFirst();\n        if ((frontTimer + frontTimeLimit) < now) {\n            dequeue();\n        }\n        EjectFront(toEject);\n    }\n\n    /* Removes the first person in line; either when their time is up or when\n    * they are done with their purchase */\n    function dequeue() {\n        require(numOfPeople > 0);\n\n        delete addressPosition[queue[0]];\n        delete queue[0];\n        numOfPeople--;\n\n        for (uint i = 0; i < numOfPeople; i++) {\n            queue[i] = queue[i+1];\n            addressPosition[queue[i]]--;\n        }\n\n        frontTimer = now;\n    }\n\n    /* Places `addr` in the first empty position in the queue */\n    function enqueue(address addr) {\n        require(numOfPeople < size);\n\n        queue[numOfPeople] = addr;\n        addressPosition[addr] = numOfPeople;\n        numOfPeople++;\n\n        if (addressPosition[addr] == 0) {\n            frontTimer = now;\n        }\n    }\n}\n",
  "sourcePath": "/Users/vitali/IdeaProjects/blockchain-dev/sp18-midterm-p1/contracts/Queue.sol",
  "compiler": {
    "name": "solc",
    "version": "0.4.19+commit.c4cbbb05.Emscripten.clang"
  },
  "schemaVersion": "1.0.1",
  "updatedAt": "2018-03-11T02:38:45.673Z"
}